Archive member included to satisfy reference by file (symbol)

c:/program files (x86)/atmel/studio/7.0/toolchain/avr8/avr8-gnu-toolchain/bin/../lib/gcc/avr/5.4.0/avrxmega2\libgcc.a(_udivmodhi4.o)
                              helper_functions.o (__udivmodhi4)
c:/program files (x86)/atmel/studio/7.0/toolchain/avr8/avr8-gnu-toolchain/bin/../lib/gcc/avr/5.4.0/avrxmega2\libgcc.a(_exit.o)
                              C:/Program Files (x86)/Atmel/Studio/7.0/Packs/atmel/XMEGAC_DFP/1.1.50/gcc/dev/atxmega32c4/avrxmega2/crtatxmega32c4.o (exit)
c:/program files (x86)/atmel/studio/7.0/toolchain/avr8/avr8-gnu-toolchain/bin/../lib/gcc/avr/5.4.0/avrxmega2\libgcc.a(_tablejump2.o)
                              LUFA/Drivers/USB/Core/DeviceStandardReq.o (__tablejump2__)
c:/program files (x86)/atmel/studio/7.0/toolchain/avr8/avr8-gnu-toolchain/bin/../lib/gcc/avr/5.4.0/avrxmega2\libgcc.a(_copy_data.o)
                              Descriptors.o (__do_copy_data)
c:/program files (x86)/atmel/studio/7.0/toolchain/avr8/avr8-gnu-toolchain/bin/../lib/gcc/avr/5.4.0/avrxmega2\libgcc.a(_clear_bss.o)
                              LUFA/Drivers/USB/Core/DeviceStandardReq.o (__do_clear_bss)
c:/program files (x86)/atmel/studio/7.0/toolchain/avr8/avr8-gnu-toolchain/bin/../lib/gcc/avr/5.4.0/avrxmega2\libgcc.a(_umulhisi3.o)
                              helper_functions.o (__umulhisi3)
c:/program files (x86)/atmel/studio/7.0/toolchain/avr8/avr8-gnu-toolchain/bin/../lib/gcc/avr/5.4.0/../../../../avr/lib/avrxmega2\libc.a(fwrite.o)
                              can-bridge-firmware.o (fwrite)
C:/Program Files (x86)/Atmel/Studio/7.0/Packs/atmel/XMEGAC_DFP/1.1.50/gcc/dev/atxmega32c4/avrxmega2\libatxmega32c4.a(eerd_byte.o)
                              LUFA/Drivers/USB/Core/XMEGA/EndpointStream_XMEGA.o (eeprom_read_byte)
C:/Program Files (x86)/Atmel/Studio/7.0/Packs/atmel/XMEGAC_DFP/1.1.50/gcc/dev/atxmega32c4/avrxmega2\libatxmega32c4.a(eeupd_byte.o)
                              LUFA/Drivers/USB/Core/XMEGA/EndpointStream_XMEGA.o (eeprom_update_byte)
C:/Program Files (x86)/Atmel/Studio/7.0/Packs/atmel/XMEGAC_DFP/1.1.50/gcc/dev/atxmega32c4/avrxmega2\libatxmega32c4.a(eewr_byte.o)
                              C:/Program Files (x86)/Atmel/Studio/7.0/Packs/atmel/XMEGAC_DFP/1.1.50/gcc/dev/atxmega32c4/avrxmega2\libatxmega32c4.a(eeupd_byte.o) (eeprom_write_r18)
c:/program files (x86)/atmel/studio/7.0/toolchain/avr8/avr8-gnu-toolchain/bin/../lib/gcc/avr/5.4.0/avrxmega2\libgcc.a(_prologue.o)
                              c:/program files (x86)/atmel/studio/7.0/toolchain/avr8/avr8-gnu-toolchain/bin/../lib/gcc/avr/5.4.0/../../../../avr/lib/avrxmega2\libc.a(fwrite.o) (__prologue_saves__)
c:/program files (x86)/atmel/studio/7.0/toolchain/avr8/avr8-gnu-toolchain/bin/../lib/gcc/avr/5.4.0/avrxmega2\libgcc.a(_epilogue.o)
                              c:/program files (x86)/atmel/studio/7.0/toolchain/avr8/avr8-gnu-toolchain/bin/../lib/gcc/avr/5.4.0/../../../../avr/lib/avrxmega2\libc.a(fwrite.o) (__epilogue_restores__)

Allocating common symbols
Common symbol       size              file

tx3_buffer          0x37              can-bridge-firmware.o
USB_IsInitialized   0x1               LUFA/Drivers/USB/Core/USBTask.o
ReportString        0x2               can-bridge-firmware.o
USB_EndpointTable   0x53              LUFA/Drivers/USB/Core/XMEGA/USBController_XMEGA.o
USB_Endpoint_SelectedFIFO
                    0x2               LUFA/Drivers/USB/Core/XMEGA/Endpoint_XMEGA.o
temp                0x4               can-bridge-firmware.o
USB_DeviceState     0x1               LUFA/Drivers/USB/Core/USBTask.o
signature           0xb               can-bridge-firmware.o
USB_Device_ConfigurationNumber
                    0x1               LUFA/Drivers/USB/Core/DeviceStandardReq.o
USB_Endpoint_SelectedHandle
                    0x2               LUFA/Drivers/USB/Core/XMEGA/Endpoint_XMEGA.o
USB_Options         0x1               LUFA/Drivers/USB/Core/XMEGA/USBController_XMEGA.o
USB_Device_CurrentlySelfPowered
                    0x1               LUFA/Drivers/USB/Core/DeviceStandardReq.o
cmd2                0x2               can-bridge-firmware.o
USB_Endpoint_SelectedEndpoint
                    0x1               LUFA/Drivers/USB/Core/XMEGA/Endpoint_XMEGA.o
USB_ControlRequest  0x8               LUFA/Drivers/USB/Core/USBTask.o
tx2_buffer          0xb0              can-bridge-firmware.o
USB_Endpoint_FIFOs  0x294             LUFA/Drivers/USB/Core/XMEGA/Endpoint_XMEGA.o
ReportStringLength  0x2               can-bridge-firmware.o
USB_Device_RemoteWakeupEnabled
                    0x1               LUFA/Drivers/USB/Core/DeviceStandardReq.o
tx0_buffer          0xb0              can-bridge-firmware.o
cmd                 0x2               can-bridge-firmware.o

Discarded input sections

 .data          0x00000000        0x0 C:/Program Files (x86)/Atmel/Studio/7.0/Packs/atmel/XMEGAC_DFP/1.1.50/gcc/dev/atxmega32c4/avrxmega2/crtatxmega32c4.o
 .bss           0x00000000        0x0 C:/Program Files (x86)/Atmel/Studio/7.0/Packs/atmel/XMEGAC_DFP/1.1.50/gcc/dev/atxmega32c4/avrxmega2/crtatxmega32c4.o
 .text          0x00000000        0x0 Descriptors.o
 .data          0x00000000        0x0 Descriptors.o
 .bss           0x00000000        0x0 Descriptors.o
 .text          0x00000000        0x0 helper_functions.o
 .data          0x00000000        0x0 helper_functions.o
 .bss           0x00000000        0x0 helper_functions.o
 .text.uint32_to_str
                0x00000000       0x82 helper_functions.o
 .text.int_to_hex
                0x00000000       0x42 helper_functions.o
 .text.calc_sum4
                0x00000000       0x36 helper_functions.o
 .text.int_to_3digit
                0x00000000       0x54 helper_functions.o
 .text.int_to_4digit
                0x00000000       0x98 helper_functions.o
Memory Configuration

Name             Origin             Length             Attributes
text             0x00000000         0x00100000         xr
data             0x00802000         0x0000ffa0         rw !x
eeprom           0x00810000         0x00010000         rw !x
fuse             0x00820000         0x00000006         rw !x
lock             0x00830000         0x00000400         rw !x
signature        0x00840000         0x00000400         rw !x
user_signatures  0x00850000         0x00000400         rw !x
*default*        0x00000000         0xffffffff

Linker script and memory map

LOAD C:/Program Files (x86)/Atmel/Studio/7.0/Packs/atmel/XMEGAC_DFP/1.1.50/gcc/dev/atxmega32c4/avrxmega2/crtatxmega32c4.o
LOAD Descriptors.o
LOAD helper_functions.o
LOAD LUFA/Drivers/USB/Class/Device/CDCClassDevice.o
LOAD LUFA/Drivers/USB/Core/ConfigDescriptors.o
LOAD LUFA/Drivers/USB/Core/DeviceStandardReq.o
LOAD LUFA/Drivers/USB/Core/Events.o
LOAD LUFA/Drivers/USB/Core/USBTask.o
LOAD LUFA/Drivers/USB/Core/XMEGA/Device_XMEGA.o
LOAD LUFA/Drivers/USB/Core/XMEGA/EndpointStream_XMEGA.o
LOAD LUFA/Drivers/USB/Core/XMEGA/Endpoint_XMEGA.o
LOAD LUFA/Drivers/USB/Core/XMEGA/Host_XMEGA.o
LOAD LUFA/Drivers/USB/Core/XMEGA/PipeStream_XMEGA.o
LOAD LUFA/Drivers/USB/Core/XMEGA/Pipe_XMEGA.o
LOAD LUFA/Drivers/USB/Core/XMEGA/Template/Template_Endpoint_Control_R.o
LOAD LUFA/Drivers/USB/Core/XMEGA/Template/Template_Endpoint_Control_W.o
LOAD LUFA/Drivers/USB/Core/XMEGA/Template/Template_Endpoint_RW.o
LOAD LUFA/Drivers/USB/Core/XMEGA/USBController_XMEGA.o
LOAD LUFA/Drivers/USB/Core/XMEGA/USBInterrupt_XMEGA.o
LOAD mcp25xx.o
LOAD can-bridge-firmware.o
LOAD sp_driver.o
START GROUP
LOAD c:/program files (x86)/atmel/studio/7.0/toolchain/avr8/avr8-gnu-toolchain/bin/../lib/gcc/avr/5.4.0/../../../../avr/lib/avrxmega2\libm.a
END GROUP
START GROUP
LOAD c:/program files (x86)/atmel/studio/7.0/toolchain/avr8/avr8-gnu-toolchain/bin/../lib/gcc/avr/5.4.0/avrxmega2\libgcc.a
LOAD c:/program files (x86)/atmel/studio/7.0/toolchain/avr8/avr8-gnu-toolchain/bin/../lib/gcc/avr/5.4.0/../../../../avr/lib/avrxmega2\libm.a
LOAD c:/program files (x86)/atmel/studio/7.0/toolchain/avr8/avr8-gnu-toolchain/bin/../lib/gcc/avr/5.4.0/../../../../avr/lib/avrxmega2\libc.a
LOAD C:/Program Files (x86)/Atmel/Studio/7.0/Packs/atmel/XMEGAC_DFP/1.1.50/gcc/dev/atxmega32c4/avrxmega2\libatxmega32c4.a
END GROUP
                0x00100000                __TEXT_REGION_LENGTH__ = DEFINED (__TEXT_REGION_LENGTH__)?__TEXT_REGION_LENGTH__:0x100000
                0x0000ffa0                __DATA_REGION_LENGTH__ = DEFINED (__DATA_REGION_LENGTH__)?__DATA_REGION_LENGTH__:0xffa0
                0x00010000                __EEPROM_REGION_LENGTH__ = DEFINED (__EEPROM_REGION_LENGTH__)?__EEPROM_REGION_LENGTH__:0x10000
                [0x00000006]                __FUSE_REGION_LENGTH__ = DEFINED (__FUSE_REGION_LENGTH__)?__FUSE_REGION_LENGTH__:0x400
                0x00000400                __LOCK_REGION_LENGTH__ = DEFINED (__LOCK_REGION_LENGTH__)?__LOCK_REGION_LENGTH__:0x400
                0x00000400                __SIGNATURE_REGION_LENGTH__ = DEFINED (__SIGNATURE_REGION_LENGTH__)?__SIGNATURE_REGION_LENGTH__:0x400
                0x00000400                __USER_SIGNATURE_REGION_LENGTH__ = DEFINED (__USER_SIGNATURE_REGION_LENGTH__)?__USER_SIGNATURE_REGION_LENGTH__:0x400

.hash
 *(.hash)

.dynsym
 *(.dynsym)

.dynstr
 *(.dynstr)

.gnu.version
 *(.gnu.version)

.gnu.version_d
 *(.gnu.version_d)

.gnu.version_r
 *(.gnu.version_r)

.rel.init
 *(.rel.init)

.rela.init
 *(.rela.init)

.rel.text
 *(.rel.text)
 *(.rel.text.*)
 *(.rel.gnu.linkonce.t*)

.rela.text
 *(.rela.text)
 *(.rela.text.*)
 *(.rela.gnu.linkonce.t*)

.rel.fini
 *(.rel.fini)

.rela.fini
 *(.rela.fini)

.rel.rodata
 *(.rel.rodata)
 *(.rel.rodata.*)
 *(.rel.gnu.linkonce.r*)

.rela.rodata
 *(.rela.rodata)
 *(.rela.rodata.*)
 *(.rela.gnu.linkonce.r*)

.rel.data
 *(.rel.data)
 *(.rel.data.*)
 *(.rel.gnu.linkonce.d*)

.rela.data
 *(.rela.data)
 *(.rela.data.*)
 *(.rela.gnu.linkonce.d*)

.rel.ctors
 *(.rel.ctors)

.rela.ctors
 *(.rela.ctors)

.rel.dtors
 *(.rel.dtors)

.rela.dtors
 *(.rela.dtors)

.rel.got
 *(.rel.got)

.rela.got
 *(.rela.got)

.rel.bss
 *(.rel.bss)

.rela.bss
 *(.rela.bss)

.rel.plt
 *(.rel.plt)

.rela.plt
 *(.rela.plt)

.text           0x00000000     0x2134
 *(.vectors)
 .vectors       0x00000000      0x1fc C:/Program Files (x86)/Atmel/Studio/7.0/Packs/atmel/XMEGAC_DFP/1.1.50/gcc/dev/atxmega32c4/avrxmega2/crtatxmega32c4.o
                0x00000000                __vector_default
                0x00000000                __vectors
 *(.vectors)
 *(.progmem.gcc*)
 .progmem.gcc_sw_table.USB_Device_ProcessControlRequest
                0x000001fc       0x14 LUFA/Drivers/USB/Core/DeviceStandardReq.o
                0x00000210                . = ALIGN (0x2)
                0x00000210                __trampolines_start = .
 *(.trampolines)
 .trampolines   0x00000210        0x0 linker stubs
 *(.trampolines*)
                0x00000210                __trampolines_end = .
 *libprintf_flt.a:*(.progmem.data)
 *libc.a:*(.progmem.data)
 *(.progmem*)
                0x00000210                . = ALIGN (0x2)
 *(.jumptables)
 *(.jumptables*)
 *(.lowtext)
 *(.lowtext*)
                0x00000210                __ctors_start = .
 *(.ctors)
                0x00000210                __ctors_end = .
                0x00000210                __dtors_start = .
 *(.dtors)
                0x00000210                __dtors_end = .
 SORT(*)(.ctors)
 SORT(*)(.dtors)
 *(.init0)
 .init0         0x00000210        0x0 C:/Program Files (x86)/Atmel/Studio/7.0/Packs/atmel/XMEGAC_DFP/1.1.50/gcc/dev/atxmega32c4/avrxmega2/crtatxmega32c4.o
                0x00000210                __init
 *(.init0)
 *(.init1)
 *(.init1)
 *(.init2)
 .init2         0x00000210        0xc C:/Program Files (x86)/Atmel/Studio/7.0/Packs/atmel/XMEGAC_DFP/1.1.50/gcc/dev/atxmega32c4/avrxmega2/crtatxmega32c4.o
 *(.init2)
 *(.init3)
 *(.init3)
 *(.init4)
 .init4         0x0000021c       0x16 c:/program files (x86)/atmel/studio/7.0/toolchain/avr8/avr8-gnu-toolchain/bin/../lib/gcc/avr/5.4.0/avrxmega2\libgcc.a(_copy_data.o)
                0x0000021c                __do_copy_data
 .init4         0x00000232       0x10 c:/program files (x86)/atmel/studio/7.0/toolchain/avr8/avr8-gnu-toolchain/bin/../lib/gcc/avr/5.4.0/avrxmega2\libgcc.a(_clear_bss.o)
                0x00000232                __do_clear_bss
 *(.init4)
 *(.init5)
 *(.init5)
 *(.init6)
 *(.init6)
 *(.init7)
 *(.init7)
 *(.init8)
 *(.init8)
 *(.init9)
 .init9         0x00000242        0x8 C:/Program Files (x86)/Atmel/Studio/7.0/Packs/atmel/XMEGAC_DFP/1.1.50/gcc/dev/atxmega32c4/avrxmega2/crtatxmega32c4.o
 *(.init9)
 *(.text)
 .text          0x0000024a        0x2 C:/Program Files (x86)/Atmel/Studio/7.0/Packs/atmel/XMEGAC_DFP/1.1.50/gcc/dev/atxmega32c4/avrxmega2/crtatxmega32c4.o
                0x0000024a                __vector_38
                0x0000024a                __vector_104
                0x0000024a                __vector_22
                0x0000024a                __vector_63
                0x0000024a                __vector_28
                0x0000024a                __vector_67
                0x0000024a                __vector_1
                0x0000024a                __vector_119
                0x0000024a                __vector_32
                0x0000024a                __vector_75
                0x0000024a                __vector_71
                0x0000024a                __vector_91
                0x0000024a                __vector_34
                0x0000024a                __vector_62
                0x0000024a                __vector_77
                0x0000024a                __vector_102
                0x0000024a                __vector_24
                0x0000024a                __vector_12
                0x0000024a                __vector_55
                0x0000024a                __vector_69
                0x0000024a                __vector_81
                0x0000024a                __vector_90
                0x0000024a                __vector_46
                0x0000024a                __bad_interrupt
                0x0000024a                __vector_122
                0x0000024a                __vector_72
                0x0000024a                __vector_114
                0x0000024a                __vector_6
                0x0000024a                __vector_110
                0x0000024a                __vector_31
                0x0000024a                __vector_92
                0x0000024a                __vector_35
                0x0000024a                __vector_78
                0x0000024a                __vector_74
                0x0000024a                __vector_117
                0x0000024a                __vector_39
                0x0000024a                __vector_107
                0x0000024a                __vector_3
                0x0000024a                __vector_105
                0x0000024a                __vector_98
                0x0000024a                __vector_23
                0x0000024a                __vector_68
                0x0000024a                __vector_30
                0x0000024a                __vector_73
                0x0000024a                __vector_45
                0x0000024a                __vector_25
                0x0000024a                __vector_93
                0x0000024a                __vector_61
                0x0000024a                __vector_11
                0x0000024a                __vector_54
                0x0000024a                __vector_99
                0x0000024a                __vector_13
                0x0000024a                __vector_17
                0x0000024a                __vector_19
                0x0000024a                __vector_56
                0x0000024a                __vector_7
                0x0000024a                __vector_49
                0x0000024a                __vector_123
                0x0000024a                __vector_41
                0x0000024a                __vector_86
                0x0000024a                __vector_100
                0x0000024a                __vector_101
                0x0000024a                __vector_88
                0x0000024a                __vector_109
                0x0000024a                __vector_43
                0x0000024a                __vector_27
                0x0000024a                __vector_5
                0x0000024a                __vector_113
                0x0000024a                __vector_33
                0x0000024a                __vector_76
                0x0000024a                __vector_115
                0x0000024a                __vector_47
                0x0000024a                __vector_52
                0x0000024a                __vector_37
                0x0000024a                __vector_95
                0x0000024a                __vector_103
                0x0000024a                __vector_96
                0x0000024a                __vector_89
                0x0000024a                __vector_108
                0x0000024a                __vector_4
                0x0000024a                __vector_44
                0x0000024a                __vector_82
                0x0000024a                __vector_106
                0x0000024a                __vector_118
                0x0000024a                __vector_51
                0x0000024a                __vector_9
                0x0000024a                __vector_21
                0x0000024a                __vector_15
                0x0000024a                __vector_66
                0x0000024a                __vector_36
                0x0000024a                __vector_79
                0x0000024a                __vector_58
                0x0000024a                __vector_70
                0x0000024a                __vector_83
                0x0000024a                __vector_29
                0x0000024a                __vector_60
                0x0000024a                __vector_121
                0x0000024a                __vector_40
                0x0000024a                __vector_85
                0x0000024a                __vector_94
                0x0000024a                __vector_126
                0x0000024a                __vector_8
                0x0000024a                __vector_26
                0x0000024a                __vector_48
                0x0000024a                __vector_124
                0x0000024a                __vector_116
                0x0000024a                __vector_112
                0x0000024a                __vector_111
                0x0000024a                __vector_80
                0x0000024a                __vector_84
                0x0000024a                __vector_57
                0x0000024a                __vector_53
                0x0000024a                __vector_10
                0x0000024a                __vector_50
                0x0000024a                __vector_16
                0x0000024a                __vector_59
                0x0000024a                __vector_18
                0x0000024a                __vector_97
                0x0000024a                __vector_42
                0x0000024a                __vector_87
                0x0000024a                __vector_120
                0x0000024c                . = ALIGN (0x2)
 *(.text.*)
 .text.CALLBACK_USB_GetDescriptor
                0x0000024c       0x72 Descriptors.o
                0x0000024c                CALLBACK_USB_GetDescriptor
 .text.SID_to_str
                0x000002be       0x6e helper_functions.o
                0x000002be                SID_to_str
 .text.canframe_to_str
                0x0000032c       0xae helper_functions.o
                0x0000032c                canframe_to_str
 .text.calc_crc8
                0x000003da       0x2c helper_functions.o
                0x000003da                calc_crc8
 .text.int_to_4digit_nodec
                0x00000406       0x54 helper_functions.o
                0x00000406                int_to_4digit_nodec
 .text.CDC_Device_ConfigureEndpoints
                0x0000045a       0x44 LUFA/Drivers/USB/Class/Device/CDCClassDevice.o
                0x0000045a                CDC_Device_ConfigureEndpoints
 .text.CDC_Device_SendByte
                0x0000049e       0x54 LUFA/Drivers/USB/Class/Device/CDCClassDevice.o
                0x0000049e                CDC_Device_SendByte
 .text.CDC_Device_putchar
                0x000004f2       0x20 LUFA/Drivers/USB/Class/Device/CDCClassDevice.o
 .text.CDC_Device_Flush
                0x00000512       0x98 LUFA/Drivers/USB/Class/Device/CDCClassDevice.o
                0x00000512                CDC_Device_Flush
 .text.CDC_Device_USBTask
                0x000005aa       0x34 LUFA/Drivers/USB/Class/Device/CDCClassDevice.o
                0x000005aa                CDC_Device_USBTask
 .text.CDC_Device_ReceiveByte
                0x000005de       0xce LUFA/Drivers/USB/Class/Device/CDCClassDevice.o
                0x000005de                CDC_Device_ReceiveByte
 .text.CDC_Device_getchar
                0x000006ac       0x12 LUFA/Drivers/USB/Class/Device/CDCClassDevice.o
 .text.CDC_Device_CreateStream
                0x000006be       0x26 LUFA/Drivers/USB/Class/Device/CDCClassDevice.o
                0x000006be                CDC_Device_CreateStream
 .text.CDC_Device_Event_Stub
                0x000006e4        0x2 LUFA/Drivers/USB/Class/Device/CDCClassDevice.o
                0x000006e4                EVENT_CDC_Device_ControLineStateChanged
                0x000006e4                EVENT_CDC_Device_BreakSent
                0x000006e4                CDC_Device_Event_Stub
                0x000006e4                EVENT_CDC_Device_LineEncodingChanged
 .text.CDC_Device_ProcessControlRequest
                0x000006e6      0x11c LUFA/Drivers/USB/Class/Device/CDCClassDevice.o
                0x000006e6                CDC_Device_ProcessControlRequest
 .text.USB_Device_ProcessControlRequest
                0x00000802      0x26c LUFA/Drivers/USB/Core/DeviceStandardReq.o
                0x00000802                USB_Device_ProcessControlRequest
 .text.USB_Event_Stub
                0x00000a6e        0x2 LUFA/Drivers/USB/Core/Events.o
                0x00000a6e                USB_Event_Stub
                0x00000a6e                EVENT_USB_Device_Suspend
                0x00000a6e                EVENT_USB_Device_StartOfFrame
                0x00000a6e                EVENT_USB_Device_Reset
                0x00000a6e                EVENT_USB_Device_WakeUp
 .text.USB_USBTask
                0x00000a70       0x20 LUFA/Drivers/USB/Core/USBTask.o
                0x00000a70                USB_USBTask
 .text.Endpoint_Write_Control_Stream_LE
                0x00000a90      0x110 LUFA/Drivers/USB/Core/XMEGA/EndpointStream_XMEGA.o
                0x00000a90                Endpoint_Write_Control_Stream_LE
 .text.Endpoint_ClearIN
                0x00000ba0       0x32 LUFA/Drivers/USB/Core/XMEGA/Endpoint_XMEGA.o
                0x00000ba0                Endpoint_ClearIN
 .text.Endpoint_ClearOUT
                0x00000bd2       0x1e LUFA/Drivers/USB/Core/XMEGA/Endpoint_XMEGA.o
                0x00000bd2                Endpoint_ClearOUT
 .text.Endpoint_Read_8
                0x00000bf0       0x20 LUFA/Drivers/USB/Core/XMEGA/Endpoint_XMEGA.o
                0x00000bf0                Endpoint_Read_8
 .text.Endpoint_Write_8
                0x00000c10       0x20 LUFA/Drivers/USB/Core/XMEGA/Endpoint_XMEGA.o
                0x00000c10                Endpoint_Write_8
 .text.Endpoint_SelectEndpoint
                0x00000c30       0x80 LUFA/Drivers/USB/Core/XMEGA/Endpoint_XMEGA.o
                0x00000c30                Endpoint_SelectEndpoint
 .text.Endpoint_IsINReady
                0x00000cb0       0x18 LUFA/Drivers/USB/Core/XMEGA/Endpoint_XMEGA.o
                0x00000cb0                Endpoint_IsINReady
 .text.Endpoint_IsOUTReceived
                0x00000cc8       0x32 LUFA/Drivers/USB/Core/XMEGA/Endpoint_XMEGA.o
                0x00000cc8                Endpoint_IsOUTReceived
 .text.Endpoint_IsSETUPReceived
                0x00000cfa       0x32 LUFA/Drivers/USB/Core/XMEGA/Endpoint_XMEGA.o
                0x00000cfa                Endpoint_IsSETUPReceived
 .text.Endpoint_ClearSETUP
                0x00000d2c       0x58 LUFA/Drivers/USB/Core/XMEGA/Endpoint_XMEGA.o
                0x00000d2c                Endpoint_ClearSETUP
 .text.Endpoint_StallTransaction
                0x00000d84       0x36 LUFA/Drivers/USB/Core/XMEGA/Endpoint_XMEGA.o
                0x00000d84                Endpoint_StallTransaction
 .text.Endpoint_ConfigureEndpoint_PRV
                0x00000dba       0x8a LUFA/Drivers/USB/Core/XMEGA/Endpoint_XMEGA.o
                0x00000dba                Endpoint_ConfigureEndpoint_PRV
 .text.Endpoint_ConfigureEndpointTable
                0x00000e44       0xc6 LUFA/Drivers/USB/Core/XMEGA/Endpoint_XMEGA.o
                0x00000e44                Endpoint_ConfigureEndpointTable
 .text.Endpoint_ClearEndpoints
                0x00000f0a       0x40 LUFA/Drivers/USB/Core/XMEGA/Endpoint_XMEGA.o
                0x00000f0a                Endpoint_ClearEndpoints
 .text.Endpoint_ClearStatusStage
                0x00000f4a       0x2e LUFA/Drivers/USB/Core/XMEGA/Endpoint_XMEGA.o
                0x00000f4a                Endpoint_ClearStatusStage
 .text.Endpoint_WaitUntilReady
                0x00000f78       0x9e LUFA/Drivers/USB/Core/XMEGA/Endpoint_XMEGA.o
                0x00000f78                Endpoint_WaitUntilReady
 .text.USB_ResetInterface
                0x00001016       0x92 LUFA/Drivers/USB/Core/XMEGA/USBController_XMEGA.o
                0x00001016                USB_ResetInterface
 .text.USB_Init
                0x000010a8       0x7a LUFA/Drivers/USB/Core/XMEGA/USBController_XMEGA.o
                0x000010a8                USB_Init
 .text.USB_INT_DisableAllInterrupts
                0x00001122        0xe LUFA/Drivers/USB/Core/XMEGA/USBInterrupt_XMEGA.o
                0x00001122                USB_INT_DisableAllInterrupts
 .text.USB_INT_ClearAllInterrupts
                0x00001130        0xc LUFA/Drivers/USB/Core/XMEGA/USBInterrupt_XMEGA.o
                0x00001130                USB_INT_ClearAllInterrupts
 .text.__vector_125
                0x0000113c       0xd2 LUFA/Drivers/USB/Core/XMEGA/USBInterrupt_XMEGA.o
                0x0000113c                __vector_125
 .text.spi0_write
                0x0000120e       0x16 mcp25xx.o
                0x0000120e                spi0_write
 .text.can1_reset
                0x00001224       0x1c mcp25xx.o
                0x00001224                can1_reset
 .text.can2_reset
                0x00001240       0x1c mcp25xx.o
                0x00001240                can2_reset
 .text.can3_reset
                0x0000125c       0x1c mcp25xx.o
                0x0000125c                can3_reset
 .text.can123_bit_modify
                0x00001278       0x24 mcp25xx.o
                0x00001278                can123_bit_modify
 .text.can_bit_modify
                0x0000129c       0x42 mcp25xx.o
                0x0000129c                can_bit_modify
 .text.can1_bit_modify
                0x000012de       0x1a mcp25xx.o
                0x000012de                can1_bit_modify
 .text.can2_bit_modify
                0x000012f8       0x1a mcp25xx.o
                0x000012f8                can2_bit_modify
 .text.can3_bit_modify
                0x00001312       0x1a mcp25xx.o
                0x00001312                can3_bit_modify
 .text.can123_rts
                0x0000132c       0x1e mcp25xx.o
                0x0000132c                can123_rts
 .text.can1_rts
                0x0000134a       0x1a mcp25xx.o
                0x0000134a                can1_rts
 .text.can2_rts
                0x00001364       0x1a mcp25xx.o
                0x00001364                can2_rts
 .text.can3_rts
                0x0000137e       0x1a mcp25xx.o
                0x0000137e                can3_rts
 .text.can123_load_txbuff
                0x00001398       0x64 mcp25xx.o
                0x00001398                can123_load_txbuff
 .text.can1_load_txbuff
                0x000013fc       0x1a mcp25xx.o
                0x000013fc                can1_load_txbuff
 .text.can2_load_txbuff
                0x00001416       0x1a mcp25xx.o
                0x00001416                can2_load_txbuff
 .text.can3_load_txbuff
                0x00001430       0x1a mcp25xx.o
                0x00001430                can3_load_txbuff
 .text.can123_read_rx_buf
                0x0000144a       0x64 mcp25xx.o
                0x0000144a                can123_read_rx_buf
 .text.can1_read_rx_buf
                0x000014ae       0x1a mcp25xx.o
                0x000014ae                can1_read_rx_buf
 .text.can2_read_rx_buf
                0x000014c8       0x1a mcp25xx.o
                0x000014c8                can2_read_rx_buf
 .text.can3_read_rx_buf
                0x000014e2       0x1a mcp25xx.o
                0x000014e2                can3_read_rx_buf
 .text.can_read_rx_buf
                0x000014fc       0x1c mcp25xx.o
                0x000014fc                can_read_rx_buf
 .text.can1_read
                0x00001518       0x2a mcp25xx.o
                0x00001518                can1_read
 .text.can2_read
                0x00001542       0x2a mcp25xx.o
                0x00001542                can2_read
 .text.can3_read
                0x0000156c       0x2a mcp25xx.o
                0x0000156c                can3_read
 .text.can_read
                0x00001596       0x14 mcp25xx.o
                0x00001596                can_read
 .text.can1_write
                0x000015aa       0x30 mcp25xx.o
                0x000015aa                can1_write
 .text.can2_write
                0x000015da       0x30 mcp25xx.o
                0x000015da                can2_write
 .text.can3_write
                0x0000160a       0x30 mcp25xx.o
                0x0000160a                can3_write
 .text.can_init
                0x0000163a      0x150 mcp25xx.o
                0x0000163a                can_init
 .text.can_write
                0x0000178a       0x14 mcp25xx.o
                0x0000178a                can_write
 .text.hw_init  0x0000179e      0x1a4 can-bridge-firmware.o
                0x0000179e                hw_init
 .text.EVENT_USB_Device_Disconnect
                0x00001942        0x2 can-bridge-firmware.o
                0x00001942                EVENT_USB_Device_Disconnect
 .text.EVENT_USB_Device_Connect
                0x00001944        0x2 can-bridge-firmware.o
                0x00001944                EVENT_USB_Device_Connect
 .text.EVENT_USB_Device_ConfigurationChanged
                0x00001946       0x14 can-bridge-firmware.o
                0x00001946                EVENT_USB_Device_ConfigurationChanged
 .text.EVENT_USB_Device_ControlRequest
                0x0000195a        0xa can-bridge-firmware.o
                0x0000195a                EVENT_USB_Device_ControlRequest
 .text.print    0x00001964       0x44 can-bridge-firmware.o
                0x00001964                print
 .text.main     0x000019a8       0x30 can-bridge-firmware.o
                0x000019a8                main
 .text.ProcessCDCCommand
                0x000019d8       0xd6 can-bridge-firmware.o
                0x000019d8                ProcessCDCCommand
 .text.__vector_14
                0x00001aae       0xd4 can-bridge-firmware.o
                0x00001aae                __vector_14
 .text.check_can1
                0x00001b82       0x4a can-bridge-firmware.o
                0x00001b82                check_can1
 .text.send_can1
                0x00001bcc       0x72 can-bridge-firmware.o
                0x00001bcc                send_can1
 .text.check_can2
                0x00001c3e       0x4a can-bridge-firmware.o
                0x00001c3e                check_can2
 .text.send_can2
                0x00001c88       0x72 can-bridge-firmware.o
                0x00001c88                send_can2
 .text.can_handler
                0x00001cfa      0x1a2 can-bridge-firmware.o
                0x00001cfa                can_handler
 .text.__vector_64
                0x00001e9c       0x4c can-bridge-firmware.o
                0x00001e9c                __vector_64
 .text.__vector_65
                0x00001ee8       0x4e can-bridge-firmware.o
                0x00001ee8                __vector_65
 .text.__vector_2
                0x00001f36       0x4e can-bridge-firmware.o
                0x00001f36                __vector_2
 .text.check_can3
                0x00001f84       0x4a can-bridge-firmware.o
                0x00001f84                check_can3
 .text.__vector_20
                0x00001fce       0x4a can-bridge-firmware.o
                0x00001fce                __vector_20
 .text.libgcc.div
                0x00002018       0x28 c:/program files (x86)/atmel/studio/7.0/toolchain/avr8/avr8-gnu-toolchain/bin/../lib/gcc/avr/5.4.0/avrxmega2\libgcc.a(_udivmodhi4.o)
                0x00002018                __udivmodhi4
 .text.libgcc   0x00002040        0xc c:/program files (x86)/atmel/studio/7.0/toolchain/avr8/avr8-gnu-toolchain/bin/../lib/gcc/avr/5.4.0/avrxmega2\libgcc.a(_tablejump2.o)
                0x00002040                __tablejump2__
 .text.libgcc.mul
                0x0000204c       0x1e c:/program files (x86)/atmel/studio/7.0/toolchain/avr8/avr8-gnu-toolchain/bin/../lib/gcc/avr/5.4.0/avrxmega2\libgcc.a(_umulhisi3.o)
                0x0000204c                __umulhisi3
 .text.avr-libc
                0x0000206a       0x64 c:/program files (x86)/atmel/studio/7.0/toolchain/avr8/avr8-gnu-toolchain/bin/../lib/gcc/avr/5.4.0/../../../../avr/lib/avrxmega2\libc.a(fwrite.o)
                0x0000206a                fwrite
 .text.libgcc.prologue
                0x000020ce       0x32 c:/program files (x86)/atmel/studio/7.0/toolchain/avr8/avr8-gnu-toolchain/bin/../lib/gcc/avr/5.4.0/avrxmega2\libgcc.a(_prologue.o)
                0x000020ce                __prologue_saves__
 .text.libgcc.prologue
                0x00002100       0x30 c:/program files (x86)/atmel/studio/7.0/toolchain/avr8/avr8-gnu-toolchain/bin/../lib/gcc/avr/5.4.0/avrxmega2\libgcc.a(_epilogue.o)
                0x00002100                __epilogue_restores__
                0x00002130                . = ALIGN (0x2)
 *(.fini9)
 .fini9         0x00002130        0x0 c:/program files (x86)/atmel/studio/7.0/toolchain/avr8/avr8-gnu-toolchain/bin/../lib/gcc/avr/5.4.0/avrxmega2\libgcc.a(_exit.o)
                0x00002130                _exit
                0x00002130                exit
 *(.fini9)
 *(.fini8)
 *(.fini8)
 *(.fini7)
 *(.fini7)
 *(.fini6)
 *(.fini6)
 *(.fini5)
 *(.fini5)
 *(.fini4)
 *(.fini4)
 *(.fini3)
 *(.fini3)
 *(.fini2)
 *(.fini2)
 *(.fini1)
 *(.fini1)
 *(.fini0)
 .fini0         0x00002130        0x4 c:/program files (x86)/atmel/studio/7.0/toolchain/avr8/avr8-gnu-toolchain/bin/../lib/gcc/avr/5.4.0/avrxmega2\libgcc.a(_exit.o)
 *(.fini0)
                0x00002134                _etext = .

.data           0x00802000      0x20a load address 0x00002134
                0x00802000                PROVIDE (__data_start, .)
 *(.data)
 *(.data*)
 .data.crctable
                0x00802000      0x100 helper_functions.o
                0x00802000                crctable
 .data.ms_timer
                0x00802100        0x2 can-bridge-firmware.o
                0x00802100                ms_timer
 .data.sec_timer
                0x00802102        0x2 can-bridge-firmware.o
                0x00802102                sec_timer
 .data.ten_sec_timer
                0x00802104        0x1 can-bridge-firmware.o
                0x00802104                ten_sec_timer
 .data.VirtualSerial_CDC_Interface
                0x00802105       0x1b can-bridge-firmware.o
                0x00802105                VirtualSerial_CDC_Interface
 .data.repeat_can
                0x00802120        0x1 can-bridge-firmware.o
                0x00802120                repeat_can
 *(.gnu.linkonce.d*)
 *(.rodata)
 *(.rodata*)
 .rodata.ProductString
                0x00802121       0x18 Descriptors.o
                0x00802121                ProductString
 .rodata.ManufacturerString
                0x00802139       0x1e Descriptors.o
                0x00802139                ManufacturerString
 .rodata.LanguageString
                0x00802157        0x4 Descriptors.o
                0x00802157                LanguageString
 .rodata.ConfigurationDescriptor
                0x0080215b       0x3e Descriptors.o
                0x0080215b                ConfigurationDescriptor
 .rodata.DeviceDescriptor
                0x00802199       0x12 Descriptors.o
                0x00802199                DeviceDescriptor
 .rodata.str1.1
                0x008021ab       0x5e can-bridge-firmware.o
 *(.gnu.linkonce.r*)
                0x0080220a                . = ALIGN (0x2)
 *fill*         0x00802209        0x1 
                0x0080220a                _edata = .
                0x0080220a                PROVIDE (__data_end, .)

.bss            0x0080220a      0x4c1
                0x0080220a                PROVIDE (__bss_start, .)
 *(.bss)
 *(.bss*)
 .bss.tx3_buffer_end
                0x0080220a        0x1 can-bridge-firmware.o
                0x0080220a                tx3_buffer_end
 .bss.tx3_buffer_pos
                0x0080220b        0x1 can-bridge-firmware.o
                0x0080220b                tx3_buffer_pos
 .bss.tx2_buffer_end
                0x0080220c        0x1 can-bridge-firmware.o
                0x0080220c                tx2_buffer_end
 .bss.tx2_buffer_pos
                0x0080220d        0x1 can-bridge-firmware.o
                0x0080220d                tx2_buffer_pos
 .bss.tx0_buffer_end
                0x0080220e        0x1 can-bridge-firmware.o
                0x0080220e                tx0_buffer_end
 .bss.tx0_buffer_pos
                0x0080220f        0x1 can-bridge-firmware.o
                0x0080220f                tx0_buffer_pos
 .bss.sec_interrupt
                0x00802210        0x1 can-bridge-firmware.o
                0x00802210                sec_interrupt
 .bss.print_char_limit
                0x00802211        0x1 can-bridge-firmware.o
                0x00802211                print_char_limit
 .bss.can_busy  0x00802212        0x1 can-bridge-firmware.o
                0x00802212                can_busy
 .bss.USBSerialStream
                0x00802213        0xe can-bridge-firmware.o
 .bss.configSuccess
                0x00802221        0x1 can-bridge-firmware.o
                0x00802221                configSuccess
 .bss.output_can_to_serial
                0x00802222        0x1 can-bridge-firmware.o
                0x00802222                output_can_to_serial
 *(COMMON)
 COMMON         0x00802223        0x3 LUFA/Drivers/USB/Core/DeviceStandardReq.o
                0x00802223                USB_Device_ConfigurationNumber
                0x00802224                USB_Device_CurrentlySelfPowered
                0x00802225                USB_Device_RemoteWakeupEnabled
 COMMON         0x00802226        0xa LUFA/Drivers/USB/Core/USBTask.o
                0x00802226                USB_IsInitialized
                0x00802227                USB_DeviceState
                0x00802228                USB_ControlRequest
 COMMON         0x00802230      0x299 LUFA/Drivers/USB/Core/XMEGA/Endpoint_XMEGA.o
                0x00802230                USB_Endpoint_SelectedFIFO
                0x00802232                USB_Endpoint_SelectedHandle
                0x00802234                USB_Endpoint_SelectedEndpoint
                0x00802235                USB_Endpoint_FIFOs
 COMMON         0x008024c9       0x54 LUFA/Drivers/USB/Core/XMEGA/USBController_XMEGA.o
                0x008024c9                USB_EndpointTable
                0x0080251c                USB_Options
 COMMON         0x0080251d      0x1ae can-bridge-firmware.o
                0x0080251d                tx3_buffer
                0x00802554                ReportString
                0x00802556                temp
                0x0080255a                signature
                0x00802565                cmd2
                0x00802567                tx2_buffer
                0x00802617                ReportStringLength
                0x00802619                tx0_buffer
                0x008026c9                cmd
                0x008026cb                PROVIDE (__bss_end, .)
                0x00002134                __data_load_start = LOADADDR (.data)
                0x0000233e                __data_load_end = (__data_load_start + SIZEOF (.data))

.noinit         0x008026cb        0x0
                [!provide]                PROVIDE (__noinit_start, .)
 *(.noinit*)
                [!provide]                PROVIDE (__noinit_end, .)
                0x008026cb                _end = .
                [!provide]                PROVIDE (__heap_start, .)

.eeprom         0x00810000        0x0
 *(.eeprom*)
                0x00810000                __eeprom_end = .

.fuse
 *(.fuse)
 *(.lfuse)
 *(.hfuse)
 *(.efuse)

.lock
 *(.lock*)

.signature
 *(.signature*)

.user_signatures
 *(.user_signatures*)

.stab
 *(.stab)

.stabstr
 *(.stabstr)

.stab.excl
 *(.stab.excl)

.stab.exclstr
 *(.stab.exclstr)

.stab.index
 *(.stab.index)

.stab.indexstr
 *(.stab.indexstr)

.comment        0x00000000       0x30
 *(.comment)
 .comment       0x00000000       0x30 Descriptors.o
                                 0x31 (size before relaxing)
 .comment       0x00000030       0x31 helper_functions.o
 .comment       0x00000030       0x31 LUFA/Drivers/USB/Class/Device/CDCClassDevice.o
 .comment       0x00000030       0x31 LUFA/Drivers/USB/Core/DeviceStandardReq.o
 .comment       0x00000030       0x31 LUFA/Drivers/USB/Core/Events.o
 .comment       0x00000030       0x31 LUFA/Drivers/USB/Core/USBTask.o
 .comment       0x00000030       0x31 LUFA/Drivers/USB/Core/XMEGA/EndpointStream_XMEGA.o
 .comment       0x00000030       0x31 LUFA/Drivers/USB/Core/XMEGA/Endpoint_XMEGA.o
 .comment       0x00000030       0x31 LUFA/Drivers/USB/Core/XMEGA/USBController_XMEGA.o
 .comment       0x00000030       0x31 LUFA/Drivers/USB/Core/XMEGA/USBInterrupt_XMEGA.o
 .comment       0x00000030       0x31 mcp25xx.o
 .comment       0x00000030       0x31 can-bridge-firmware.o
 .comment       0x00000030       0x31 c:/program files (x86)/atmel/studio/7.0/toolchain/avr8/avr8-gnu-toolchain/bin/../lib/gcc/avr/5.4.0/../../../../avr/lib/avrxmega2\libc.a(fwrite.o)

.note.gnu.avr.deviceinfo
                0x00000000       0x40
 .note.gnu.avr.deviceinfo
                0x00000000       0x40 C:/Program Files (x86)/Atmel/Studio/7.0/Packs/atmel/XMEGAC_DFP/1.1.50/gcc/dev/atxmega32c4/avrxmega2/crtatxmega32c4.o

.note.gnu.build-id
 *(.note.gnu.build-id)

.debug
 *(.debug)

.line
 *(.line)

.debug_srcinfo
 *(.debug_srcinfo)

.debug_sfnames
 *(.debug_sfnames)

.debug_aranges  0x00000000      0x520
 *(.debug_aranges)
 .debug_aranges
                0x00000000       0x20 Descriptors.o
 .debug_aranges
                0x00000020       0x78 helper_functions.o
 .debug_aranges
                0x00000098       0x98 LUFA/Drivers/USB/Class/Device/CDCClassDevice.o
 .debug_aranges
                0x00000130       0x20 LUFA/Drivers/USB/Core/DeviceStandardReq.o
 .debug_aranges
                0x00000150       0x20 LUFA/Drivers/USB/Core/Events.o
 .debug_aranges
                0x00000170       0x20 LUFA/Drivers/USB/Core/USBTask.o
 .debug_aranges
                0x00000190       0xc8 LUFA/Drivers/USB/Core/XMEGA/EndpointStream_XMEGA.o
 .debug_aranges
                0x00000258       0x90 LUFA/Drivers/USB/Core/XMEGA/Endpoint_XMEGA.o
 .debug_aranges
                0x000002e8       0x30 LUFA/Drivers/USB/Core/XMEGA/USBController_XMEGA.o
 .debug_aranges
                0x00000318       0x30 LUFA/Drivers/USB/Core/XMEGA/USBInterrupt_XMEGA.o
 .debug_aranges
                0x00000348      0x118 mcp25xx.o
 .debug_aranges
                0x00000460       0xc0 can-bridge-firmware.o

.debug_pubnames
 *(.debug_pubnames)

.debug_info     0x00000000     0xcd9b
 *(.debug_info .gnu.linkonce.wi.*)
 .debug_info    0x00000000     0x2226 C:/Program Files (x86)/Atmel/Studio/7.0/Packs/atmel/XMEGAC_DFP/1.1.50/gcc/dev/atxmega32c4/avrxmega2/crtatxmega32c4.o
 .debug_info    0x00002226      0x938 Descriptors.o
 .debug_info    0x00002b5e      0x6b4 helper_functions.o
 .debug_info    0x00003212      0xf72 LUFA/Drivers/USB/Class/Device/CDCClassDevice.o
 .debug_info    0x00004184     0x1180 LUFA/Drivers/USB/Core/DeviceStandardReq.o
 .debug_info    0x00005304       0x7f LUFA/Drivers/USB/Core/Events.o
 .debug_info    0x00005383      0x42d LUFA/Drivers/USB/Core/USBTask.o
 .debug_info    0x000057b0     0x1776 LUFA/Drivers/USB/Core/XMEGA/EndpointStream_XMEGA.o
 .debug_info    0x00006f26      0xd24 LUFA/Drivers/USB/Core/XMEGA/Endpoint_XMEGA.o
 .debug_info    0x00007c4a      0xd90 LUFA/Drivers/USB/Core/XMEGA/USBController_XMEGA.o
 .debug_info    0x000089da      0xa81 LUFA/Drivers/USB/Core/XMEGA/USBInterrupt_XMEGA.o
 .debug_info    0x0000945b     0x12e6 mcp25xx.o
 .debug_info    0x0000a741     0x265a can-bridge-firmware.o

.debug_abbrev   0x00000000     0x3cf7
 *(.debug_abbrev)
 .debug_abbrev  0x00000000     0x2056 C:/Program Files (x86)/Atmel/Studio/7.0/Packs/atmel/XMEGAC_DFP/1.1.50/gcc/dev/atxmega32c4/avrxmega2/crtatxmega32c4.o
 .debug_abbrev  0x00002056      0x18d Descriptors.o
 .debug_abbrev  0x000021e3      0x17b helper_functions.o
 .debug_abbrev  0x0000235e      0x394 LUFA/Drivers/USB/Class/Device/CDCClassDevice.o
 .debug_abbrev  0x000026f2      0x313 LUFA/Drivers/USB/Core/DeviceStandardReq.o
 .debug_abbrev  0x00002a05       0x44 LUFA/Drivers/USB/Core/Events.o
 .debug_abbrev  0x00002a49      0x1fb LUFA/Drivers/USB/Core/USBTask.o
 .debug_abbrev  0x00002c44      0x212 LUFA/Drivers/USB/Core/XMEGA/EndpointStream_XMEGA.o
 .debug_abbrev  0x00002e56      0x2f6 LUFA/Drivers/USB/Core/XMEGA/Endpoint_XMEGA.o
 .debug_abbrev  0x0000314c      0x2cb LUFA/Drivers/USB/Core/XMEGA/USBController_XMEGA.o
 .debug_abbrev  0x00003417      0x247 LUFA/Drivers/USB/Core/XMEGA/USBInterrupt_XMEGA.o
 .debug_abbrev  0x0000365e      0x2ae mcp25xx.o
 .debug_abbrev  0x0000390c      0x3eb can-bridge-firmware.o

.debug_line     0x00000000     0x4ba7
 *(.debug_line .debug_line.* .debug_line_end)
 .debug_line    0x00000000      0x391 C:/Program Files (x86)/Atmel/Studio/7.0/Packs/atmel/XMEGAC_DFP/1.1.50/gcc/dev/atxmega32c4/avrxmega2/crtatxmega32c4.o
 .debug_line    0x00000391      0x2e0 Descriptors.o
 .debug_line    0x00000671      0x4d8 helper_functions.o
 .debug_line    0x00000b49      0x7b3 LUFA/Drivers/USB/Class/Device/CDCClassDevice.o
 .debug_line    0x000012fc      0x49c LUFA/Drivers/USB/Core/DeviceStandardReq.o
 .debug_line    0x00001798       0x4f LUFA/Drivers/USB/Core/Events.o
 .debug_line    0x000017e7      0x1d6 LUFA/Drivers/USB/Core/USBTask.o
 .debug_line    0x000019bd     0x130c LUFA/Drivers/USB/Core/XMEGA/EndpointStream_XMEGA.o
 .debug_line    0x00002cc9      0x6a0 LUFA/Drivers/USB/Core/XMEGA/Endpoint_XMEGA.o
 .debug_line    0x00003369      0x3d6 LUFA/Drivers/USB/Core/XMEGA/USBController_XMEGA.o
 .debug_line    0x0000373f      0x395 LUFA/Drivers/USB/Core/XMEGA/USBInterrupt_XMEGA.o
 .debug_line    0x00003ad4      0x6f5 mcp25xx.o
 .debug_line    0x000041c9      0x9de can-bridge-firmware.o

.debug_frame    0x00000000     0x1274
 *(.debug_frame)
 .debug_frame   0x00000000       0x24 Descriptors.o
 .debug_frame   0x00000024      0x19c helper_functions.o
 .debug_frame   0x000001c0      0x1bc LUFA/Drivers/USB/Class/Device/CDCClassDevice.o
 .debug_frame   0x0000037c       0x48 LUFA/Drivers/USB/Core/DeviceStandardReq.o
 .debug_frame   0x000003c4       0x24 LUFA/Drivers/USB/Core/Events.o
 .debug_frame   0x000003e8       0x2c LUFA/Drivers/USB/Core/USBTask.o
 .debug_frame   0x00000414      0x488 LUFA/Drivers/USB/Core/XMEGA/EndpointStream_XMEGA.o
 .debug_frame   0x0000089c      0x158 LUFA/Drivers/USB/Core/XMEGA/Endpoint_XMEGA.o
 .debug_frame   0x000009f4       0x50 LUFA/Drivers/USB/Core/XMEGA/USBController_XMEGA.o
 .debug_frame   0x00000a44       0x8c LUFA/Drivers/USB/Core/XMEGA/USBInterrupt_XMEGA.o
 .debug_frame   0x00000ad0      0x3e8 mcp25xx.o
 .debug_frame   0x00000eb8      0x3bc can-bridge-firmware.o

.debug_str      0x00000000     0x4dcf
 *(.debug_str)
 .debug_str     0x00000000     0x168f C:/Program Files (x86)/Atmel/Studio/7.0/Packs/atmel/XMEGAC_DFP/1.1.50/gcc/dev/atxmega32c4/avrxmega2/crtatxmega32c4.o
 .debug_str     0x0000168f      0xbe6 Descriptors.o
                                0xc87 (size before relaxing)
 .debug_str     0x00002275      0x4a1 helper_functions.o
                                0x667 (size before relaxing)
 .debug_str     0x00002716      0x7fe LUFA/Drivers/USB/Class/Device/CDCClassDevice.o
                                0xb49 (size before relaxing)
 .debug_str     0x00002f14      0x890 LUFA/Drivers/USB/Core/DeviceStandardReq.o
                               0x1201 (size before relaxing)
 .debug_str     0x000037a4       0x31 LUFA/Drivers/USB/Core/Events.o
                                0x1c8 (size before relaxing)
 .debug_str     0x000037d5       0x6d LUFA/Drivers/USB/Core/USBTask.o
                                0x494 (size before relaxing)
 .debug_str     0x00003842      0x39c LUFA/Drivers/USB/Core/XMEGA/EndpointStream_XMEGA.o
                                0x9bb (size before relaxing)
 .debug_str     0x00003bde      0x1eb LUFA/Drivers/USB/Core/XMEGA/Endpoint_XMEGA.o
                                0xb1a (size before relaxing)
 .debug_str     0x00003dc9      0x22b LUFA/Drivers/USB/Core/XMEGA/USBController_XMEGA.o
                                0xed6 (size before relaxing)
 .debug_str     0x00003ff4       0xdf LUFA/Drivers/USB/Core/XMEGA/USBInterrupt_XMEGA.o
                                0x97b (size before relaxing)
 .debug_str     0x000040d3      0x354 mcp25xx.o
                                0x56e (size before relaxing)
 .debug_str     0x00004427      0x9a8 can-bridge-firmware.o
                               0x1727 (size before relaxing)

.debug_loc      0x00000000     0x67a4
 *(.debug_loc)
 .debug_loc     0x00000000      0x1bd Descriptors.o
 .debug_loc     0x000001bd      0xd6f helper_functions.o
 .debug_loc     0x00000f2c      0x91a LUFA/Drivers/USB/Class/Device/CDCClassDevice.o
 .debug_loc     0x00001846      0x2d7 LUFA/Drivers/USB/Core/DeviceStandardReq.o
 .debug_loc     0x00001b1d       0x22 LUFA/Drivers/USB/Core/USBTask.o
 .debug_loc     0x00001b3f     0x24f5 LUFA/Drivers/USB/Core/XMEGA/EndpointStream_XMEGA.o
 .debug_loc     0x00004034      0x578 LUFA/Drivers/USB/Core/XMEGA/Endpoint_XMEGA.o
 .debug_loc     0x000045ac      0x109 LUFA/Drivers/USB/Core/XMEGA/USBController_XMEGA.o
 .debug_loc     0x000046b5      0x1e4 LUFA/Drivers/USB/Core/XMEGA/USBInterrupt_XMEGA.o
 .debug_loc     0x00004899     0x14cb mcp25xx.o
 .debug_loc     0x00005d64      0xa40 can-bridge-firmware.o

.debug_macinfo
 *(.debug_macinfo)

.debug_weaknames
 *(.debug_weaknames)

.debug_funcnames
 *(.debug_funcnames)

.debug_typenames
 *(.debug_typenames)

.debug_varnames
 *(.debug_varnames)

.debug_pubtypes
 *(.debug_pubtypes)

.debug_ranges   0x00000000      0x788
 *(.debug_ranges)
 .debug_ranges  0x00000000       0x10 Descriptors.o
 .debug_ranges  0x00000010       0x80 helper_functions.o
 .debug_ranges  0x00000090       0x88 LUFA/Drivers/USB/Class/Device/CDCClassDevice.o
 .debug_ranges  0x00000118       0x58 LUFA/Drivers/USB/Core/DeviceStandardReq.o
 .debug_ranges  0x00000170       0x10 LUFA/Drivers/USB/Core/Events.o
 .debug_ranges  0x00000180       0x10 LUFA/Drivers/USB/Core/USBTask.o
 .debug_ranges  0x00000190      0x348 LUFA/Drivers/USB/Core/XMEGA/EndpointStream_XMEGA.o
 .debug_ranges  0x000004d8       0xb8 LUFA/Drivers/USB/Core/XMEGA/Endpoint_XMEGA.o
 .debug_ranges  0x00000590       0x20 LUFA/Drivers/USB/Core/XMEGA/USBController_XMEGA.o
 .debug_ranges  0x000005b0       0x20 LUFA/Drivers/USB/Core/XMEGA/USBInterrupt_XMEGA.o
 .debug_ranges  0x000005d0      0x108 mcp25xx.o
 .debug_ranges  0x000006d8       0xb0 can-bridge-firmware.o

.debug_macro
 *(.debug_macro)
OUTPUT(can-bridge-firmware.elf elf32-avr)
LOAD linker stubs
